:100000000C94AC000C94D4000C94D4000C94D40048
:100010000C94D4000C94D4000C94D4000C94D40010
:100020000C94D4000C94D4000C94D4000C94D40000
:100030000C94D4000C94D4000C94D4000C94D400F0
:100040000C944B030C94D4000C94BB030C949503B8
:100050000C94D4000C94D4000C94D4000C94D400D0
:100060000C94D4000C94D4004D6F64653A204D4F2D
:1000700054494F4E202864656661756C7429004CA4
:1000800045442D6F6E2D70726573656E63652073C8
:10009000746172746564004F4646004F4E00204CF8
:1000A000696768743A20007300434F4F4C20007317
:1000B00000414354495645200049444C45004E00F8
:1000C00059002053746174653A2000204D6F7469A3
:1000D0006F6E3A20002F00204272696768743A20E0
:1000E00000506F743A20004D414E55414C004D4F29
:1000F00054494F4E004D6F64653A200000000000E7
:10010000240027002A0000000000250028002B0002
:100110000000000023002600290004040404040455
:1001200004040202020202020303030303030102A6
:100130000408102040800102040810200102040875
:100140001020000000080002010000030407000066
:100150000000000000002B0711241FBECFEFD8E0E5
:10016000DEBFCDBF11E0A0E0B1E0EEE7FFE002C0EE
:1001700005900D92A831B107D9F721E0A8E1B1E0CF
:1001800001C01D92A53DB207E1F710E0CCEAD0E036
:1001900004C02197FE010E94B707CB3AD107C9F7E7
:1001A0000E94ED030C94BD070C940000833081F095
:1001B00028F4813099F08230A9F008958730A9F0B1
:1001C0008830C9F08430B1F4809180008F7D03C005
:1001D000809180008F7780938000089584B58F7719
:1001E00084BD089584B58F7DFBCF8091B0008F775B
:1001F0008093B00008958091B0008F7DF9CFCF93A8
:10020000DF93282F30E0F901EE5BFE4F8491F90176
:10021000E25DFE4FD491F901E65EFE4FC491CC231E
:10022000A1F081110E94D600EC2FF0E0EE0FFF1F2D
:10023000E05FFE4FA591B491EC91ED2381E090E059
:1002400009F480E0DF91CF91089580E090E0FACF4B
:100250001F93CF93DF93282F30E0F901EE5BFE4F21
:100260008491F901E25DFE4FD491F901E65EFE4F03
:10027000C491CC23A9F0162F81110E94D600EC2F37
:10028000F0E0EE0FFF1FEA5FFE4FA591B4918FB72C
:10029000F894EC91111108C0D095DE23DC938FBF48
:1002A000DF91CF911F910895DE2BF8CFCF93DF938D
:1002B00090E0FC01E25DFE4F2491865E9E4FFC01C2
:1002C00084918823C9F090E0880F991FFC01E450C5
:1002D000FF4FA591B491FC01EA5FFE4FC591D49107
:1002E00061110DC09FB7F8948C91209582238C9357
:1002F0008881282328839FBFDF91CF9108956230A2
:1003000051F49FB7F8943C91822F809583238C936E
:10031000E8812E2BEFCF8FB7F894EC912E2B2C93F6
:100320008FBFEACF3FB7F8948091340190913501A7
:10033000A0913601B091370126B5A89B05C02F3F8B
:1003400019F00196A11DB11D3FBFBA2FA92F982FFB
:100350008827BC01CD01620F711D811D911D42E0F6
:10036000660F771F881F991F4A95D1F708952FB7F9
:10037000F894609130017091310180913201909137
:1003800033012FBF0895AF92BF92CF92DF92EF92C9
:10039000FF920F931F93CF93DF936C017B018B012F
:1003A000040F151FEB015E01AE18BF08C017D1077F
:1003B00059F06991D601ED91FC910190F081E02D09
:1003C000C6010995892B79F7C501DF91CF911F915E
:1003D0000F91FF90EF90DF90CF90BF90AF90089576
:1003E000FC01538D448D252F30E0842F90E0821B3B
:1003F000930B541710F0CF96089501970895FC01C0
:10040000918D828D981761F0A28DAE0FBF2FB11D17
:100410005D968C91928D9F5F9F73928F90E008956F
:100420008FEF9FEF0895FC01918D828D981731F029
:10043000828DE80FF11D858D90E008958FEF9FEF7D
:100440000895FC01918D228D892F90E0805C9F4F53
:10045000821B91098F739927089588E391E00E9488
:10046000210221E0892B09F420E0822F089580E009
:1004700090E0892B29F00E942D0281110C9400003C
:100480000895FC01A48DA80FB92FB11DA35ABF4F29
:100490002C91848D90E001968F739927848FA68983
:1004A000B7892C93A089B1898C91837080648C93D7
:1004B000938D848D981306C00288F389E02D808186
:1004C0008F7D80830895EF92FF920F931F93CF93B8
:1004D000DF93EC0181E0888F9B8D8C8D98131AC07F
:1004E000E889F989808185FF15C09FB7F894EE8966
:1004F000FF896083E889F9898081837080648083C3
:100500009FBF81E090E0DF91CF911F910F91FF900D
:10051000EF900895F62E0B8D10E00F5F1F4F0F73B5
:100520001127E02E8C8D8E110CC00FB607FCFACF70
:10053000E889F989808185FFF5CFCE010E944102CB
:10054000F1CFEB8DEC0FFD2FF11DE35AFF4FF08241
:100550009FB7F8940B8FEA89FB8980818062CFCFA7
:100560000F931F93CF93DF938C01D0E0C0E0F8018D
:10057000EC0FFD1F6491662341F088E391E00E9437
:100580006302892B11F02196F2CFCE01DF91CF913A
:100590001F910F910895CF93DF93EC01888D8823ED
:1005A000B9F0AA89BB89E889F9898C9185FD03C0D6
:1005B000808186FD0DC00FB607FCF7CF8C9185FFBB
:1005C000F2CF808185FFEDCFCE010E944102E9CFBD
:1005D000DF91CF9108958F929F92AF92BF920F9328
:1005E0001F93CF93DF93CDB7DEB7A1970FB6F894E3
:1005F000DEBF0FBECDBF19A2423008F44AE08E0123
:100600000F5D1F4F842E912CB12CA12CA5019401BC
:100610000E947707E62FB901CA01EA3044F5E05D90
:10062000D801EE938D01232B242B252B79F790E015
:1006300080E0109769F0FD0101900020E9F7319703
:10064000AF014A1B5B0BBD0188E391E00E94C3012F
:10065000A1960FB6F894DEBF0FBECDBFDF91CF914C
:100660001F910F91BF90AF909F908F900895E95C7C
:10067000D7CFCF93DF930E94B002EC0142E050E06D
:1006800064E171E088E391E00E94C3018C0F9D1F3B
:10069000DF91CF9108951F920F920FB60F92112400
:1006A0002F933F938F939F93AF93BF93809130018C
:1006B00090913101A0913201B091330130912F011D
:1006C00023E0230F2D3758F50196A11DB11D20936E
:1006D0002F018093300190933101A0933201B093A8
:1006E00033018091340190913501A0913601B09190
:1006F00037010196A11DB11D8093340190933501FE
:10070000A0933601B0933701BF91AF919F918F9124
:100710003F912F910F900FBE0F901F90189526E8D4
:10072000230F0296A11DB11DD2CF1F920F920FB6BB
:100730000F9211242F933F934F935F936F937F9367
:100740008F939F93AF93BF93EF93FF9388E391E0D1
:100750000E944102FF91EF91BF91AF919F918F91C4
:100760007F916F915F914F913F912F910F900FBEAD
:100770000F901F9018951F920F920FB60F92112491
:100780002F938F939F93EF93FF93E0914801F09104
:1007900049018081E0914E01F0914F0182FD1BC023
:1007A0009081809151018F5F8F7320915201821748
:1007B00041F0E0915101F0E0E85CFE4F958F8093AD
:1007C0005101FF91EF919F918F912F910F900FBE4B
:1007D0000F901F9018958081F4CF789484B5826033
:1007E00084BD84B5816084BD85B5826085BD85B5D5
:1007F000816085BD80916E00816080936E00109253
:1008000081008091810082608093810080918100CD
:10081000816080938100809180008160809380005E
:100820008091B10084608093B1008091B0008160BC
:100830008093B00080917A00846080937A008091E8
:100840007A00826080937A0080917A008160809340
:100850007A0080917A00806880937A001092C100BB
:10086000E0914801F091490182E08083E0914401E8
:10087000F09145011082E0914601F09147018FEC23
:10088000808310925001E0914C01F0914D0186E07F
:100890008083E0914A01F0914B01808180618083E7
:1008A000E0914A01F0914B01808188608083E09162
:1008B0004A01F0914B01808180688083E0914A0178
:1008C000F0914B0180818F7D808360E08EE00E94FB
:1008D000560160E082E00E94560162E083E00E94DF
:1008E000560161E086E00E94560161E08DE00E94C1
:1008F000560161E086E00E94560160E086E00E94B9
:10090000280160E08DE00E9428018FE790E00E94BE
:10091000390388E690E00E94390328EE822E23E016
:10092000922EA12CB12C92E0292E312C83E00E9432
:10093000FF00EC0111E0892B09F410E08091010126
:10094000181751F00E94B7016093180170931901B4
:1009500080931A0190931B01109301010E94B7012B
:10096000C0901801D0901901E0901A01F0901B017D
:100970006C197D098E099F09633371058105910505
:1009800010F1809100011817F1F010930001CD2BA8
:10099000D1F4C0912D01D0912E0181E090E02097FB
:1009A00011F090E080E090932E0180932D0185EF6F
:1009B00090E00E94B0028EEE90E0CD2B11F487EE15
:1009C00090E00E94390380E480937C0080917A005B
:1009D000806480937A0080917A0086FDFCCF4090FD
:1009E00078005090790082E00E94FF007C018091A5
:1009F0002D0190912E01892B09F095C080912B013A
:100A000090912C018130910509F441C050F1029779
:100A100009F470C080912A01882309F48DC09201E5
:100A2000A1E0BFEF0E94A8072FEF33E040E050E0C5
:100A30000E94580721503F4F4F4F5F4F2093210195
:100A40003091200120912101832F90E0321708F08E
:100A500076C030E00596281739070CF078C0C90138
:100A600076C021E0E216F104A9F6F0922C01E092A2
:100A70002B0131E030932A010E94B70160932601D7
:100A8000709327018093280190932901C3CF41E0FF
:100A9000E416F10451F40E94B701609326017093AB
:100AA000270180932801909329010E94B7010091AA
:100AB0002601109127012091280130912901601B06
:100AC000710B820B930B69397A438105910508F408
:100AD000A1CF30922C0120922B010E94B70160938C
:100AE0002201709323018093240190932501109299
:100AF0002A0190CF0E94B701009122011091230199
:100B00002091240130912501601B710B820B930B06
:100B1000613D77408105910508F47CCF10922C014E
:100B200010922B0177CF81E0F6E04F1651040CF4C0
:100B300080E080932A01F2CF1092210181CF231708
:100B400040F430E00597821793070CF488CF809328
:100B50002001D09020010D2D10E061E086E00E9480
:100B600056010115110509F0BDC060E086E00E9444
:100B7000280161E080912D0190912E01019709F0EB
:100B800060E08DE00E9428010E94B70100911C01E5
:100B900010911D0120911E0130911F01601B710BEE
:100BA000820B930B653F71408105910508F469C084
:100BB0000E94B70160931C0170931D0180931E0178
:100BC00090931F0181EE90E00E94B002052C000C72
:100BD000660877084AE0C301B20177FE0DC06DE2F6
:100BE00088E391E00E94630266277727CB016419AE
:100BF0007509860997094AE00E94EB0287ED90E0AB
:100C00000E94B0026091200170E090E080E04AE034
:100C10000E94EB0285ED90E00E94B00260912101FC
:100C200070E090E080E04AE00E94EB028BEC90E004
:100C30000E94B00280EC90E0EA94EF2811F08EEB75
:100C400090E00E94B00282EC90E00E94B00280919D
:100C50002B0190912C018130910509F48FC008F48B
:100C600088C0029709F4BFC08EE990E00E94B002EC
:100C700080912A01882309F4EBC08BE990E00E945F
:100C800039030E9492016B017C0184E1482E512CB2
:100C9000612C712C0E9492016C197D098E099F09AB
:100CA000683E734081059105A8F331E0431A51086D
:100CB0006108710848EEC40E43E0D41EE11CF11C2B
:100CC000411451046104710429F780E090E0892BFC
:100CD00009F42CCE0E942D02882309F424CE0E9410
:100CE000000021CE0F3F110511F461E03FCFE8E491
:100CF000F1E08491833019F140F48130B1F0823019
:100D0000C9F0003811058CF730CF873011F18830E9
:100D100041F18430B1F7809180008062809380003F
:100D200010938B0000938A0024CF84B5806884BD23
:100D3000D7BC1FCF84B5806284BDD8BC1ACF809148
:100D40008000806880938000109389000093880061
:100D500010CF8091B00080688093B000D092B30033
:100D600008CF8091B00080628093B000D092B40030
:100D700000CF89EB90E00E94B00276CF0E94B701CD
:100D8000009126011091270120912801309129011D
:100D9000DC01CB01801B910BA20BB30BC12CD12C1E
:100DA000760188393AE39307A105B10580F428E973
:100DB0003AE340E050E0281B390B4A0B5B0BCA01B9
:100DC000B901A50194010E94770769017A0181EBBD
:100DD00090E00E94B0024AE0C701B6010E94EB0217
:100DE0008FEA90E0C8CF0E94B701009122011091D4
:100DF00023012091240130912501DC01CB01801BCE
:100E0000910BA20BB30BC12CD12C7601803D37E0A6
:100E10009307A105B10580F420ED37E040E050E0F4
:100E2000281B390B4A0B5B0BCA01B901A5019401C0
:100E30000E94770769017A0189EA90E00E94B00276
:100E40004AE0C701B6010E94EB0287EA90E093CF27
:100E500087E990E014CFE8E3F1E01382128288EE94
:100E600093E0A0E0B0E084839583A683B78386E017
:100E700091E09183808385EC90E09587848784EC72
:100E800090E09787868780EC90E0918B808B81EC57
:100E900090E0938B828B82EC90E0958B848B86EC38
:100EA00090E0978B868B118E128E138E148E089580
:100EB000052E97FB1EF400940E946F0757FD07D084
:100EC0000E94770707FC03D04EF40C946F075095EF
:100ED0004095309521953F4F4F4F5F4F0895909526
:100EE0008095709561957F4F8F4F9F4F0895A1E238
:100EF0001A2EAA1BBB1BFD010DC0AA1FBB1FEE1F94
:100F0000FF1FA217B307E407F50720F0A21BB30BDE
:100F1000E40BF50B661F771F881F991F1A9469F75A
:100F200060957095809590959B01AC01BD01CF01B6
:100F30000895A29FB001B39FC001A39F700D811DB2
:100F40001124911DB29F700D811D1124911D0895D2
:100F50000E949907332312F48A1B9B0B0C94B2074F
:100F60000E949907B7FF0895821B930B0895EE0F17
:0E0F7000FF1F0590F491E02D0994F894FFCF37
:100F7E000101000000006302C301F001CB02210257
:080F8E00FF0113020D0A00002F
:00000001FF
